:020000040800F2
:100000000028002085040008D5040008D504000855
:10001000D5040008D5040008D5040008000000003D
:10002000000000000000000000000000D5040008EF
:10003000D504000800000000D504000831040008C1
:10004000D5040008D5040008D5040008D50400082C
:10005000D5040008D504000889020008AD02000894
:10006000D1020008F5020008190300087101000818
:1000700099010008C1010008E90100081102000807
:100080003902000861020008D5040008D504000800
:10009000D5040008D5040008D5040008D5040008DC
:1000A000D50400083D030008D5040008D504000865
:1000B000D5040008D5040008D5040008D5040008BC
:1000C000D5040008D5040008D5040008A9030008D9
:1000D000ED030008D5040008D5040008D504000885
:1000E000D5040008D504000800000000D50400086D
:1000F000D5040008D5040008D5040008D50400087C
:10010000D5040008D5040008D5040008D50400086B
:10011000D5040008D5040008D5040008D50400085B
:10012000D5040008D5040008D5040008D50400084B
:1001300010B5054C237833B9044B13B10448AFF321
:1001400000800123237010BD10000020000000007B
:100150002005000808B5034B1BB103490348AFF362
:10016000008008BD000000001400002020050008E9
:1001700080B400AF074B1B68064B1B68054B1B6820
:10018000044B5B68034A43F00F03536000BFBD4656
:1001900080BC70470000024080B400AF074B1B6872
:1001A000064B1B68054B1B68044B5B68034A43F016
:1001B000F003536000BFBD4680BC704700000240A2
:1001C00080B400AF074B1B68064B1B68054B1B68D0
:1001D000044B5B68034A43F47063536000BFBD4641
:1001E00080BC70470000024080B400AF074B1B6822
:1001F000064B1B68054B1B68044B5B68034A43F4C2
:100200007043536000BFBD4680BC70470000024091
:1002100080B400AF074B1B68064B1B68054B1B687F
:10022000044B5B68034A43F47023536000BFBD4630
:1002300080BC70470000024080B400AF074B1B68D1
:10024000064B1B68054B1B68044B5B68034A43F471
:100250007003536000BFBD4680BC70470000024081
:1002600080B400AF074B1B68064B1B68054B1B682F
:10027000044B5B68034A43F07063536000BFBD46A4
:1002800080BC70470000024080B500AF054B1B6882
:100290009847054B5B69044A43F00103536100BF73
:1002A00080BD00BF2C0000200004014080B500AFDD
:1002B000054B5B689847054B5B69044A43F00203B2
:1002C000536100BF80BD00BF2C000020000401402E
:1002D00080B500AF054B9B689847054B5B69044AA6
:1002E00043F00403536100BF80BD00BF2C00002019
:1002F0000004014080B500AF054BDB689847054B13
:100300005B69044A43F00803536100BF80BD00BF2E
:100310002C0000200004014080B500AF054B1B6994
:100320009847054B5B69044A43F01003536100BFD3
:1003300080BD00BF2C0000200004014080B500AF4C
:10034000164B1B78DBB203F00103002B17D1144BC3
:100350001B689B899AB2124B1B6822F0010292B271
:100360009A810F4B1B681B889AB20D4B1B6822F0B9
:10037000010292B21A800A4B5B6800229A85094BEF
:100380001B689847064B5B681B8A9AB2044B5B68F4
:1003900022F0010292B21A8200BF80BD6C000020E0
:1003A000000000207000002080B500AF0D4B9B685E
:1003B00003F00103012B10D10B4B1B68002B06D05F
:1003C000094B1B68074AD268D2B210469847054BC2
:1003D0009B68044A23F001039360024B9B6800BFB3
:1003E00080BD00BF003001407400002080B500AF28
:1003F0000D4B9B6803F00103012B10D10B4B1B68C5
:10040000002B06D0094B1B68074AD268D2B21046AF
:100410009847054B9B68044A23F001039360024B05
:100420009B6800BF80BD00BF0038004078000020FE
:1004300080B500AF0C4B1B78002B0BD10B4B00226F
:100440001A600A4B00225A60084B00229A60064B41
:1004500002221A70064B1B68002B02D0044B1B684B
:10046000984700BF80BD00BF8000002010E000E082
:100470007C00002080B400AF00231846BD4680BC3D
:10048000704700000D488546AFF300800C480D49C9
:100490000D4A002302E0D458C4500433C4188C42DF
:1004A000F9D30A4A0A4C002301E013600432A24245
:1004B000FBD300F011F8FFF7DDFFFEE70028002076
:1004C000000000201000002040050008100000205F
:1004D00084000020FEE7000070B500250C4E0D4C96
:1004E000A41BA410A54209D100F01AF800250A4E59
:1004F0000A4CA41BA410A54205D170BD56F82530A6
:1005000098470135EEE756F8253098470135F2E770
:100510003805000838050008380500083C050008C3
:10052000F8B500BFF8BC08BC9E467047F8B500BFE0
:08053000F8BC08BC9E467047B0
:040538005501000861
:04053C003101000881
:10054000002C014000000040000400400008004072
:040000050800048566
:00000001FF
